:020000040800F2
:1000000050040020D5000008FB000008FD00000897
:1000100000000000000000000000000000000000E0
:10002000000000000000000000000000FF000008C9
:1000300000000000000000000101000803010008AA
:100040000501000805010008050100080501000878
:1000500005010008A50100080501000805010008C8
:100060000501000805010008050100080501000858
:100070000501000805010008050100080501000848
:100080000501000800000000000000000501000854
:1000900000000000050100088D07000805010008A8
:1000A0000000000005010008050100080501000826
:1000B0000501000800000000050100080501000816
:1000C0000348854600F05CF800480047150B00081F
:1000D000500400200C4880F308880C480168090E81
:1000E0000B4A914205D10B480B4901600B480C4962
:1000F00001600C4880470C480047FEE7FEE7FEE73A
:10010000FEE7FEE7FEE700005004002004000000C8
:100110001F00000018100240010000000000014014
:100120000000000019070008C100000830B50B46A8
:10013000014600202022012409E00D46D5409D42C1
:1001400005D31D469540491B254695404019154647
:10015000521E002DF1DC30BD70B50024254600286C
:1001600001DA01244042002901DA01254942FFF762
:10017000DDFFAC4200D04042002C00D0494270BDAF
:10018000064C0125064E05E0E36807CC2B430C3CEA
:1001900098471034B442F7D3FFF796FF4C1200088B
:1001A0006C12000807484069C007C00F002808D03B
:1001B000044840690121084302494861012002497D
:1001C00008707047000401400100002000BF0A4889
:1001D00080690121C90308400028F8D10648406819
:1001E000064908430449486000BF03488069C007C6
:1001F000C00F0028F9D07047005400407820FF005D
:1002000000BF0D488069C007C00F0028F9D00A4818
:1002100040680121890308430749486000BF064838
:100220008069202108400028F9D00348C0690843AC
:100230000149C861704700000054004000BF0449F4
:100240008969C907C90F0029F9D001498862704737
:100250000054004030B505460B46FFF7B7FF40207D
:10026000FFF7ECFF00221DE02846203881004018EF
:1002700080180F490C5C002B04D0E143C8B2FFF793
:10028000DDFF02E02046FFF7D9FF042A08D1002B4A
:1002900003D0FF20FFF7D2FF02E00020FFF7CEFFE0
:1002A000501CC2B2052ADFDBFFF7AAFF30BD0000F9
:1002B000EA0D000810B5002405E0002103A000F0BD
:1002C000BCF8601CC4B20A2CF7DB10BD2020202033
:1002D000202020202020202020202020000000009E
:1002E00070B505460E4600240AE02819C1B2002068
:1002F00000F014F8002104A000F09FF8601CC4B2C4
:10030000B442F2DB70BD00002020202020202020FD
:1003100020202020202020200000000010B50246D0
:100320000B46FFF753FF0020FFF788FF3020FFF751
:1003300085FF114606246143491C80242143C8B22D
:10034000FFF77CFF402119430846FFF777FFFFF7CF
:1003500057FF10BD00B50920C006806A022108437E
:100360000921C90688620A2000F0C4FA0920C006E3
:100370008069022108430921C90688610A2000F02A
:10038000B9FAFFF723FF0020FFF758FF3120FFF7EE
:1003900055FF1420FFF752FF0620FFF74FFF3020D4
:1003A000FFF74CFF1120FFF749FF0520FFF746FF3D
:1003B0003120FFF743FF9A20FFF740FF0C20FFF7A3
:1003C0003DFF3020FFF73AFF0C20FFF737FF4020BA
:1003D000FFF734FF8020FFF731FFFFF711FF00BD6B
:1003E000FEB505460E460124002700BF0A2D0EDB90
:1003F0000A212846FFF7B0FECFB2384630306946B2
:1004000008550A212846FFF7A7FE054604E02846BE
:100410003030694608550025601CC4B2002DE5D176
:10042000601EC4B200BF6946085D3146FFF712FF87
:10043000601EC4B2002CF6D1FEBD30B504460D4698
:1004400004E020782946FFF705FF641C2078002887
:10045000F7D130BD30B500241225A806806A0821E6
:100460000843A90688620A2000F044FAA8068069B9
:1004700008210843A90688610A2000F03BFA08E039
:10048000074B621C995C1A46105D00F0FBF8A01C3B
:10049000C4B2AC42F4DB8021012000F0F3F830BD9F
:1004A000D80D000830B503460924E406A46A1025D7
:1004B0002C430925ED06AC6200BF214CA46802253F
:1004C0002C40002CF9D01E4C237300BF1C4CA46898
:1004D00080252C40002CF9D100BF194CA468E407FA
:1004E000E40F002CF9D0164C247B00201CE000BF48
:1004F000134CA46802252C40002CF9D00024104D88
:100500002C7300BF0E4CA46880252C40002CF9D120
:1005100000BF0B4CA468E407E40F002CF9D0084C92
:10052000247B0C54441CE0B29042E0DB0924E40636
:10053000A46910252C430925ED06AC6130BD0000EF
:100540000030014001460922D206926A10231A4364
:100550000923DB069A6200BF0922D20612694023F2
:100560001A40002AF8D100BF1D4A926802231A409F
:10057000002AF9D01A4A117300BF194A92688023E1
:100580001A40002AF9D100BF154A9268D207D20F4B
:10059000002AF9D0124A117B00BF114A9268022347
:1005A0001A40002AF9D000220D4B1A7300BF0C4AE2
:1005B000926880231A40002AF9D100BF084A926845
:1005C000D207D20F002AF9D0054A107B0922D206A1
:1005D000926910231A430923DB069A6170470000D1
:1005E0000030014030B503460924E406A46A102512
:1005F0002C430925ED06AC6200BF214CA4680225FE
:100600002C40002CF9D080241C431D4D2C7300BFBE
:100610001B4CA46880252C40002CF9D100BF184C3D
:10062000A468E407E40F002CF9D0154C247B0020CB
:100630001BE000BF124CA46802252C40002CF9D00E
:100640000C5C0F4D2C7300BF0D4CA46880252C4012
:10065000002CF9D100BF0A4CA468E407E40F002C79
:10066000F9D0074C247B441CE0B29042E1DB092422
:10067000E406A46910252C430925ED06AC6130BDC4
:100680000030014010B502460923DB069B6A1024A6
:1006900023430924E406A36200BF1E4B9B68022487
:1006A0002340002BF9D0802313431A4C237300BF3F
:1006B000184B9B6880242340002BF9D100BF154BB9
:1006C0009B68DB07DB0F002BF9D0124B187B00BFB8
:1006D000104B9B6802242340002BF9D00D4B19735B
:1006E00000BF0C4B9B6880242340002BF9D100BF36
:1006F000084B9B68DB07DB0F002BF9D0054B187B01
:100700000923DB069B69102423430924E406A36123
:1007100010BD000000300140194800680121084365
:10072000174908600846406816490840144948605F
:1007300008460068144908401149086008460068E6
:100740000121890488430E490860084640683F211A
:10075000090488430A4948600846C06A0009000144
:10076000C8620846006BFF21D431884304490863FE
:100770000846406B4008400048630020886070478E
:10078000001002400CB8FF08FFFFF6FE00B5074856
:100790000069C007C00F002807D000F009F803481F
:1007A0000069400840000149086100BD004801405F
:1007B0001D480088002804D01B480088401E1A49A4
:1007C00008801A480088002809D1FF20F530174911
:1007D000088017484069012148401549486115487B
:1007E0000088002806D17D20C00012490880012021
:1007F0001149087011480078002805D1C8200F4918
:10080000087001200E49087008480088401E0749FA
:10081000088008480088401E06490880074800787C
:10082000401E0649087070471A0000201C00002076
:10083000000400481E0000202200002020000020AC
:1008400021000020002805DBC206D20E01219140C4
:10085000014A11607047000000E100E010B5002877
:1008600019DB1A4A03231B02D21883089B00D258B3
:100870008307DC0EFF23A3409A438B071B0E8407DC
:10088000E40EA3401A43114B032424021B198408CD
:10089000A4001A5118E00E4A03071B0F083B9B08DF
:1008A0009B00D2588307DC0EFF23A3409A438B079B
:1008B0001B0E8407E40EA3401A43054B0407240FC4
:1008C000083CA408A4001A5110BD000000E100E09B
:1008D0001CED00E002E008C8121F08C1002AFAD18E
:1008E00070477047002001E001C1121F002AFBD1B0
:1008F000704700000349088000BF024909880029A9
:10090000FBD170471A00002010B579488069012199
:1009100089040843764988617648774988620120CE
:10092000C862084600689121084373490860084678
:10093000C068012108437049C8601620FFF782FF94
:1009400005211620FFF78AFF6948406901218904C3
:1009500008436749486169480068012108436749BD
:10096000086063484069C90108436149486109203A
:10097000C0060068302188430921C906086008467E
:10098000C068102108430921C906C8605848406959
:1009900001218905084356494861594800680A21E0
:1009A000084357490860084680680F2108435449A6
:1009B00088600846006A11210843514908620920ED
:1009C000C0060068042108430921C9060860484898
:1009D000C0690121490508434549C8614948006982
:1009E0000521090708434749086108464068032173
:1009F000C90288434349486008460068012108430A
:100A0000404908603A48406901214904084338498F
:100A100048610920C00680683F21890208430921F6
:100A2000C9068860084600681521C90208430921E3
:100A3000C90608600846006A0862084680680F21F7
:100A4000890108430921C906886008460068FF211A
:100A5000413108430921C906086025488069012100
:100A6000090308432249886127480068C521890095
:100A7000084325490860084640688914084322490C
:100A8000486008460068402108431F490860092063
:100A9000C0068069102108430921C90688611448ED
:100AA000806901210843124988610920C006006855
:100AB000800880000921C90608600846C068022134
:100AC00008430921C906C8601048C0680F49C860BA
:100AD0000F488068012108430D49886002210520E4
:100AE000FFF7BCFE0520FFF7ADFE62B610BD0000AB
:100AF000001002403F1F0000004801400004004871
:100B00000014004800540040003001400000014043
:100B100000040140FFF7F8FE9348006801210843F4
:100B200091490860FFF796FC0920C006006904217E
:100B3000084000281FD1FFF70DFCFFF7BBFB002189
:100B40000846FFF7EBFB012188A0FFF776FC0021A8
:100B50004020FFF797FD12213920FFF793FD8121F7
:100B60000120FFF78FFD00210D20FFF78BFD852170
:100B70000120FFF787FDF5E00920C0060069042188
:100B8000084000287ED17D480078002829D0132015
:100B9000FFF7D8FC7A4908701A20FFF7D3FC79498F
:100BA00008701920FFF7CEFC774908707448027866
:100BB00076490020FFF776FC80210120FFF762FDD7
:100BC00000210D20FFF75EFD85210120FFF75AFD72
:100BD00000206A4908706E49087001206D4908704C
:100BE00008E06D480078002804D069480078401C6F
:100BF000674908706948007800287BD0654800780C
:100C0000002849D002210020FFF788FB002164A0C2
:100C1000FFF713FC5B4909789D22501A0021FFF76A
:100C2000DFFB002160A0FFF708FC02210A20FFF78C
:100C300075FB00215DA0FFF700FC53480478E11725
:100C4000890F091988100021FFF7CAFB002156A05F
:100C5000FFF7F3FB01210420FFF742FB04210020F2
:100C6000FFF75CFB00214948FFF7E7FB04210A205E
:100C7000FFF754FB002140A0FFF7DFFB4349487B0F
:100C8000002100E03AE0FFF7ABFB002149A0FFF7AD
:100C9000D4FB00203F4908703D480078052826DD38
:100CA00007210120FFF71CFB04210020FFF736FB82
:100CB000002141A0FFF7C1FB1B20FFF743FC424985
:100CC000087002210020FFF729FB002134A0FFF764
:100CD000B4FB3D4909789D22501A0021FFF780FBA3
:100CE000002134A0FFF7A9FB00202949087000204B
:100CF0002A49087000202849087033E033480078FA
:100D0000401C324908700846007831494873402138
:100D10000846FFF7B7FC12213920FFF7B3FC812109
:100D20000120FFF7AFFC80210D20FFF7ABFC102264
:100D300027490020FFF756FC83210120FFF7A2FC82
:100D400000BF0E4800780028FBD080210120FFF76B
:100D500099FC0020094908701E48FFF7CBFD0020D0
:100D60000D49087008E70000000401402054657335
:100D7000742052464D3935572000000001000020F4
:100D80000200002004000020060000203C0000209B
:100D90000700002008000020220000202100002081
:100DA00052535349202D000020200000534E522062
:100DB00000000000202020004E6F7420436F6E6EF4
:100DC00065637465640000000500002000000020D9
:100DD00009000020B80B0000018006D907000804B4
:100DE00009FF0B1F1D721EC2221000000000000030
:100DF000002F00000007000700147F147F14242A2E
:100E00007F2A12C4C81026463649552250000503D1
:100E10000000001C2241000041221C0014083E0872
:100E20001408083E08080000503000101010101080
:100E3000006060000020100804023E5149453E0059
:100E4000427F400042615149462141454B311814CF
:100E5000127F1027454545393C4A494930017109FF
:100E600005033649494936064949291E00363600E8
:100E70000000563600000814224100141414141403
:100E800000412214080201510906324959513E7E9F
:100E90001111117E7F494949363E414141227F412E
:100EA00041221C7F494949417F090909013E4149C5
:100EB000497A7F0808087F00417F41002040413F78
:100EC000017F081422417F404040407F020C027F96
:100ED0007F0408107F3E4141413E7F090909063EDB
:100EE0004151215E7F09192946464949493101018D
:100EF0007F01013F4040403F1F2040201F3F4038BE
:100F0000403F63140814630708700807615149459E
:100F100043007F414100552A552A550041417F0039
:100F2000040201020440404040400001020400204D
:100F3000545454787F484444383844444420384416
:100F400044487F3854545418087E0901020C525208
:100F5000523E7F0804047800447D40002040443D18
:100F6000007F1028440000417F40007C0418047872
:100F70007C0804047838444444387C141414080869
:100F80001414187C7C080404084854545420043F6A
:100F90004440203C4040207C1C2040201C3C4030F1
:100FA000403C44281028440C5050503C4464544C5D
:100FB00044000836410000007F0000004136080070
:100FC000040204080400000000000000000000000B
:100FD0000000000000000000000000000000000011
:100FE0000000000000000000000000000000000001
:100FF00000000000000000000000000000000000F1
:1010000000000000000000000000000000000000E0
:1010100000000000000000000000000000000000D0
:1010200000000000000000000000000000000000C0
:1010300000000000000000000000000000000000B0
:1010400000000000000000000000000000000000A0
:101050000000000000000000000000000000000090
:101060000000000000000000000000000000000080
:101070000000000000000000000000000000000070
:10108000000000000000000000003600000000002A
:101090000000000000000000000000003E49494937
:1010A000220000000000000000000000000000001E
:1010B000000000000044457C454406090906000084
:1010C0000000000000417F410000447D400000001E
:1010D0000000000000000000000000000000000010
:1010E0000000000000000000000000003854442808
:1010F00000000000000000000000000000000000F0
:1011000000000000004A487A40407E1111117E7FA5
:10111000494949317F494949367F01010103603E10
:1011200021217F7F4949494163147F146322494942
:1011300049367F1008047F7F1009047F7F0814223E
:10114000417C0201017F7F020C027F7F0808087F3B
:101150003E4141413E7F0101017F7F090909063E71
:101160004141412201017F0101074848483F1C22BB
:101170007F221C63140814633F20203F6007080887
:10118000087F7F407F407F3F203F207F017F48488E
:10119000307F4848307F7F48484830224949493E9F
:1011A0007F083E413E462919097F205454547878DF
:1011B000545454207C545454287C04040400603853
:1011C00024386038545454186C107C106C284454E3
:1011D00054283C4040207C3C4042207C7C1010281D
:1011E00044601008047C7C0810087C7C1010107C83
:1011F00038444444387C0404047C7C1414140838B7
:101200004444442004047C04040C5050503C1824F2
:101210007C241844281028443C20203C600C1010EA
:10122000107C7C407C407C3C203C207C047C4848FA
:10123000307C4830007C7C4848483028445454383E
:101240007C10384438582424247C00006C12000898
:101250000000002024000000D408000890120008BC
:10126000240000202C040000E40800080000000016
:1012700000000006005465737400000000000000C8
:10128000000000000000000000000000000000005E
:04000005080000D51A
:00000001FF
